:020000040800F2
:10000000002800201D170008AD160008B3160008D0
:10001000B9160008BF160008C51600080000000049
:10002000000000000000000000000000CB160008E7
:10003000D716000800000000E3160008EF160008BD
:1000400065170008651700086517000865170008A0
:100050006517000865170008651700086517000890
:100060006517000865170008651700086517000880
:100070006517000865170008651700086517000870
:100080006517000865170008651700086517000860
:100090006517000865170008651700086517000850
:1000A0006517000865170008651700086517000840
:1000B000FD1600086517000800000000651700081D
:1000C0006517000800000000000000006517000828
:1000D0000000000065170008651700080000000018
:1000E0006517000865170008651700080000000084
:1000F0000000000000000000000000000000000000
:0C01000000000000000000005FF808F1A3
:10010C0010B5054C237833B9044B13B10448AFF345
:10011C0000800123237010BD44000020000000006B
:10012C00942D000808B5034B1BB103490348AFF3EA
:10013C00008008BD0000000048000020942D00083D
:10014C0080B500AF4FF400510D4801F0F1FD0346AE
:10015C001A460C4B1A704FF48041094801F0E8FD27
:10016C0003461A46074B5A704FF40041044801F0FD
:10017C00DFFD03461A46034B9A7000BF80BD00BFDB
:10018C00000C01406400002080B582B000AF002359
:10019C00FB713BE0FA79FB792049895C204AD15408
:1001AC00FFF7CEFFFB791D4AD25CFB791C49CB5C77
:1001BC009A4205D1FA79FB791849895C194AD154CC
:1001CC00FB79184AD35C002B14D1FB79164A32F810
:1001DC001330632B09D8FB79134A32F81320013200
:1001EC0091B2114A22F813100DE0FB790F4A01214C
:1001FC00D15408E0FB790C4A002122F81310FB794A
:10020C000A4A0021D154FB790133FB71FB79022B93
:10021C00C0D900BF00BF0837BD4680BD64000020B8
:10022C006800002060000020700000206C0000209E
:10023C0080B483B000AF0346FB71FB79022B01D96C
:10024C00002307E0FB79064AD35C002B0CBF01238B
:10025C000023DBB218460C37BD4680BC704700BF8C
:10026C006000002080B483B000AF0346FB71FB79C3
:10027C00022B01D9FF2307E0FB79064AD35C012B43
:10028C000CBF01230023DBB218460C37BD4680BCE3
:10029C00704700BF6C00002080B500AF354B1B7859
:1002AC00002B63D1344B1B78022B20D0022B2BDC80
:1002BC00002B02D0012B0DD026E0002000F08CFC8E
:1002CC000346002B02D02C4B02221A70002000F0A7
:1002DC001DFD19E0012000F07FFC0346002B02D02D
:1002EC00254B00221A70012000F010FD0CE00220BA
:1002FC0000F072FC0346002B02D01F4B01221A7037
:10030C00022000F003FD00BF1C4B1B78022B20D0F9
:10031C00022B2CDC002B02D0012B0DD027E003206C
:10032C0000F05AFC0346002B02D0144B02221A7028
:10033C00032000F0EBFC1AE0042000F04DFC034617
:10034C00002B02D00D4B00221A70042000F0DEFCB2
:10035C000DE0052000F040FC0346002B02D0074BBB
:10036C0001221A70052000F0D1FC00E000BF00BF94
:10037C0080BD00BF34000020AC0000202000002015
:10038C0080B500AF00F0B2FF594B1B78022B26D082
:10039C00022B33DC002B02D0012B0CD02EE00020E2
:1003AC00FFF746FF0346002B23D0514B01221A7056
:1003BC0000F0CCFE1DE00020FFF73AFF0346002BB7
:1003CC0003D14B4B00221A7015E00020FFF74AFFB7
:1003DC000346002B0FD0464B02221A700BE0002074
:1003EC00FFF726FF0346002B07D1414B00221A7062
:1003FC0003E000BF02E000BF00E000BF3D4B1B78F4
:10040C00022B29D0022B36DC002B02D0012B0FD073
:10041C0031E00120FFF70CFF0346002B26D0354BB3
:10042C0001221A70344B1B680133334A13601DE0F0
:10043C000120FFF7FDFE0346002B03D12D4B0022BC
:10044C001A7015E00120FFF70DFF0346002B0FD0AB
:10045C00284B02221A700BE00120FFF7E9FE03463D
:10046C00002B07D1234B00221A7003E000BF02E0DF
:10047C0000BF00E000BF214B1B78022B26D0022BC3
:10048C0033DC002B02D0012B0CD02EE00220FFF726
:10049C00CFFE0346002B23D0184B01221A7000F01C
:1004AC00CBFF1DE00220FFF7C3FE0346002B03D158
:1004BC00124B00221A7015E00220FFF7D3FE034600
:1004CC00002B0FD00D4B02221A700BE00220FFF70D
:1004DC00AFFE0346002B07D1084B00221A7003E035
:1004EC0000BF02E000BF00E000BF00BF80BD00BF46
:1004FC007600002077000020B0000020780000205B
:10050C0080B483B000AF03463960FB71FA793B6865
:10051C00094981FB03018910DB17CB1A074941F804
:10052C002230FB79064A002142F8231000BF0C3719
:10053C00BD4680BC704700BF676666660000002041
:10054C007C00002080B582B000AF0346FB71FB79C4
:10055C00032B67D801A252F823F000BF79050008DD
:10056C00A7050008D5050008030600080022402155
:10057C003A4801F0F4FB01228021384801F0EFFBEE
:10058C0001224FF48071354801F0E9FB01224FF450
:10059C000071324801F0E3FB5BE0012240212F485F
:1005AC0001F0DDFB002280212C4801F0D8FB012258
:1005BC004FF48071294801F0D2FB01224FF40071F5
:1005CC00264801F0CCFB44E001224021234801F0F5
:1005DC00C6FB01228021214801F0C1FB00224FF40F
:1005EC0080711E4801F0BBFB01224FF400711B48C7
:1005FC0001F0B5FB2DE001224021184801F0AFFBC2
:10060C0001228021154801F0AAFB01224FF48071D0
:10061C00124801F0A4FB00224FF400710F4801F0C6
:10062C009EFB16E0012240210C4801F098FB0122B0
:10063C0080210A4801F093FB01224FF48071074896
:10064C0001F08DFB01224FF40071044801F087FB8F
:10065C0000BF00BF0837BD4680BD00BF0008014089
:10066C0080B582B000AF0346FB71FB79092B00F219
:10067C007F8101A252F823F0AD060008F5060008B0
:10068C003D07000885070008CD070008150800087D
:10069C005D080008A5080008ED08000835090008E9
:1006AC0000220121C64801F05AFB00220221C44855
:1006BC0001F055FB00220421C14801F050FB00223F
:1006CC000821BF4801F04BFB00221021BC4801F06F
:1006DC0046FB00222021BA4801F041FB01224021B7
:1006EC00B74801F03CFB67E101220121B44801F05D
:1006FC0036FB00220221B24801F031FB002204211A
:10070C00AF4801F02CFB01220821AD4801F027FB7A
:10071C0001221021AA4801F022FB01222021A84825
:10072C0001F01DFB01224021A54801F018FB43E11B
:10073C0000220121A24801F012FB00220221A04854
:10074C0001F00DFB012204219D4801F008FB002261
:10075C0008219B4801F003FB00221021984801F06E
:10076C00FEFA01222021964801F0F9FA00224021DC
:10077C00934801F0F4FA1FE100220121904801F0A6
:10078C00EEFA002202218E4801F0E9FA002204213F
:10079C008B4801F0E4FA00220821894801F0DFFAC5
:1007AC0001221021864801F0DAFA01222021844826
:1007BC0001F0D5FA00224021814801F0D0FAFBE08B
:1007CC00012201217E4801F0CAFA002202217C4854
:1007DC0001F0C5FA00220421794801F0C0FA012287
:1007EC000821774801F0BBFA01221021744801F06E
:1007FC00B6FA00222021724801F0B1FA0022402101
:10080C006F4801F0ACFAD7E0002201216C4801F0EE
:10081C00A6FA012202216A4801F0A1FA0022042161
:10082C00674801F09CFA00220821654801F097FA0C
:10083C0001221021624801F092FA00222021604826
:10084C0001F08DFA002240215D4801F088FAB3E0F6
:10085C00002201215A4801F082FA01220221584853
:10086C0001F07DFA00220421554801F078FA0022AB
:10087C000821534801F073FA00221021504801F06E
:10088C006EFA002220214E4801F069FA0022402124
:10089C004B4801F064FA8FE000220121484801F036
:1008AC005EFA00220221464801F059FA0022042186
:1008BC00434801F054FA01220821414801F04FFA53
:1008CC00012210213E4801F04AFA012220213C4825
:1008DC0001F045FA01224021394801F040FA6BE061
:1008EC0000220121364801F03AFA00220221344854
:1008FC0001F035FA00220421314801F030FA0022CF
:10090C0008212F4801F02BFA002210212C4801F06D
:10091C0026FA002220212A4801F021FA0022402147
:10092C00274801F01CFA47E000220121244801F07D
:10093C0016FA00220221224801F011FA00220421A9
:10094C001F4801F00CFA002208211D4801F007FA9B
:10095C00012210211A4801F002FA00222021184825
:10096C0001F0FDF900224021154801F0F8F923E0CF
:10097C0001220121124801F0F2F901220221104852
:10098C0001F0EDF9012204210D4801F0E8F90122F2
:10099C0008210B4801F0E3F901221021084801F06D
:1009AC00DEF901222021064801F0D9F9012240216B
:1009BC00034801F0D4F900BF00BF0837BD4680BD25
:1009CC00000C014080B500AF294B1B68002B16DDD5
:1009DC00284B1B78002B12D1254B1B68013B244A5A
:1009EC001360234B1B68002B02DC234B01221A6083
:1009FC001F4B1B681A460121002000F00BF91C4B01
:100A0C005B68002B16DD1B4B1B78012B12D1184B8E
:100A1C005B68013B164A5360154B5B68002B02DC8C
:100A2C00154B01225A60124B5B681A4601210020BB
:100A3C0000F0F0F80E4B9B68002B16DD0D4B1B786D
:100A4C00022B12D10A4B9B68013B094A9360084B5D
:100A5C009B68002B02DC084B01229A60044B9B68BC
:100A6C001A460121002000F0D5F800BF80BD00BF60
:100A7C0000000020AC0000207C00002080B500AFFE
:100A8C00294BDB68002B16DD284B1B78002B12D171
:100A9C00254BDB68013B244AD360234BDB68002BDE
:100AAC0002DC234B0122DA601F4BDB681A46032160
:100ABC00022000F0AFF81C4B1B69002B16DD1B4B02
:100ACC001B78012B12D1184B1B69013B164A136181
:100ADC00154B1B69002B02DC154B01221A61124BC2
:100AEC001B691A460321022000F094F80E4B5B6937
:100AFC00002B16DD0D4B1B78022B12D10A4B5B69B8
:100B0C00013B094A5361084B5B69002B02DC084B23
:100B1C0001225A61044B5B691A460321022000F042
:100B2C0079F800BF80BD00BF00000020200000202D
:100B3C007C00002080B582B000AF0346FB71FB79CE
:100B4C00052B3FD801A252F823F000BF710B00080F
:100B5C00810B0008910B0008A10B0008B10B0008D9
:100B6C00C10B0008194B1A68FB7911461846FFF7A0
:100B7C00C7FC27E0164B1A68FB7911461846FFF79D
:100B8C00BFFC1FE0134B1A68FB7911461846FFF7A0
:100B9C00B7FC17E00D4B1A68FB7911461846FFF7A6
:100BAC00AFFC0FE00A4B1A68FB7911461846FFF7A9
:100BBC00A7FC07E0074B1A68FB7911461846FFF7AC
:100BCC009FFC00BF00BF0837BD4680BD240000203D
:100BDC00280000202C00002080B582B000AF034616
:100BEC00FB71FB79072B01D900230CE0FB79084A38
:100BFC0052F82330012B05D1FB791846FFF79AFFE9
:100C0C00012300E0002318460837BD4680BD00BF15
:100C1C007C00002080B483B000AF03463A60FB71C7
:100C2C000B46BB713B68134A82FB03125211DB1754
:100C3C00D31A3B60FA793B680F4981FB0301891099
:100C4C00DB17CB1A0D4941F82230B87939680A4BB9
:100C5C0083FB01239A10CB17D21A13469B00134423
:100C6C005B00CA1A054B43F8202000BF0C37BD4669
:100C7C0080BC70471F85EB51676666669C00002040
:100C8C0080B582B000AF0346FB71FB791846FFF7C5
:100C9C0059FCFB79054A52F82330DBB21846FFF7B2
:100CAC00DFFC00BF0837BD4680BD00BF9C000020A4
:100CBC0080B500AF124B9B69002B1EDD104B9B695E
:100CCC00013B0F4A93610E4B9B69002B15DC0D4BBE
:100CDC001B685A1C0B490A60DBB21846FFF7D0FFA1
:100CEC00084B1B68032B02DD064B00221A60064BD7
:100CFC001B6819460620FFF703FC00BF80BD00BF30
:100D0C0000000020B40000203000002080B582B02C
:100D1C0000AF78607B68052B77D801A252F823F0DE
:100D2C00450D0008650D0008850D0008A50D00088F
:100D3C00CB0D0008F10D000800220221464801F0FD
:100D4C000EF801220421444801F009F8012208217F
:100D5C00414801F004F87AE0012202213E4800F0FB
:100D6C00FEFF002204213C4800F0F9FF012208217B
:100D7C00394800F0F4FF6AE001220221364800F005
:100D8C00EEFF01220421344800F0E9FF0022082183
:100D9C00314800F0E4FF5AE000224FF400512E4895
:100DAC0000F0DDFF01224FF480412B4800F0D7FF0B
:100DBC0001224FF40041284800F0D1FF47E0012206
:100DCC004FF40051244800F0CAFF00224FF4804138
:100DDC00214800F0C4FF01224FF400411E4800F0EE
:100DEC00BEFF34E001224FF400511B4800F0B7FF66
:100DFC0001224FF48041184800F0B1FF00224FF45B
:100E0C000041154800F0ABFF21E0012202211248FD
:100E1C0000F0A5FF012204210F4800F0A0FF0122E1
:100E2C0008210D4800F09BFF01224FF400510A48A5
:100E3C0000F095FF01224FF48041074800F08FFF2E
:100E4C0001224FF40041044800F089FF00BF00BFAD
:100E5C000837BD4680BD00BF0008014080B500AF1B
:100E6C0000F07CFC00F00EF800F094F800F046F86E
:100E7C00034801F0D1FBFFF70FFAFFF781FAFAE70D
:100E8C00BC00002080B590B000AF07F118032822F9
:100E9C000021184601F070FF3B1D00221A605A60B9
:100EAC009A60DA601A610223BB610123BB621023D2
:100EBC00FB6200237B6307F11803184600F080FFE8
:100ECC000346002B01D000F0C7F80F237B600023F2
:100EDC00BB600023FB6000233B6100237B613B1D57
:100EEC000021184601F0ECF90346002B01D000F06C
:100EFC00B3F800BF4037BD4680BD000080B586B05A
:100F0C0000AF07F1080300221A605A609A60DA6099
:100F1C003B4600221A605A601D4B4FF080421A600B
:100F2C001B4B41F63F725A60194B00229A60184BCA
:100F3C000922DA60164B00221A61154B00229A61C5
:100F4C00134801F019FB0346002B01D000F084F884
:100F5C004FF48053BB6007F1080319460C4801F0AD
:100F6C0097FC0346002B01D000F076F800233B6081
:100F7C0000237B603B461946054801F06FFE034693
:100F8C00002B01D000F068F800BF1837BD4680BDBB
:100F9C00BC00002080B586B000AF07F1080300222A
:100FAC001A605A609A60DA60284B9B69274A43F0B2
:100FBC0004039361254B9B6903F004037B607B68FE
:100FCC00224B9B69214A43F0080393611F4B9B6999
:100FDC0003F008033B603B6800224EF2CE311C4804
:100FEC0000F0BDFE00227F211A4800F0B8FE4EF240
:100FFC00CE33BB600123FB6000233B6102237B618A
:10100C0007F108031946124800F018FD7F23BB6056
:10101C000123FB6000233B6102237B6107F1080382
:10102C0019460C4800F00AFD4FF46043BB600023E6
:10103C00FB6000233B6107F108031946054800F0EB
:10104C00FDFC00BF1837BD4680BD00BF001002403C
:10105C0000080140000C014080B400AF72B600BF24
:10106C00FEE7000080B500AF01220221104800F01D
:10107C0076FE012204210E4800F071FE01220821A7
:10108C000B4800F06CFE01224FF40051084800F0B0
:10109C0066FE01224FF48041054800F060FE0122FB
:1010AC004FF40041024800F05AFE00BF80BD00BF63
:1010BC000008014080B483B000AF78601F4B002261
:1010CC001A601F4B1B78032B0ED0032B10DC012B4B
:1010DC0002D0022B04D00BE0184B02225A6008E01D
:1010EC00164B03225A6004E0144B04225A6000E0B1
:1010FC0000BF7B68134A82FB03129211DB17D31AD1
:10110C007B607B68104A82FB03129210DB17D31AA8
:10111C000A4A936079680C4B83FB01239A10CB1716
:10112C00D21A13469B0013445B00CA1A034BDA60B5
:10113C0000BF0C37BD4680BC704700BF9C00002030
:10114C0034000020D34D62106766666680B500AF30
:10115C001B4B1B6819460720FFF7D2F9194B0022CD
:10116C001A60194B1B78032B22D801A252F823F0DA
:10117C008D11000899110008A5110008B111000883
:10118C00FFF770FF104B01221A7017E0FFF76AFF90
:10119C000D4B02221A7011E0FFF764FF0A4B032279
:1011AC001A700BE0FFF75EFF074B00221A7005E088
:1011BC00FFF758FF044B00221A7000BF00BF80BD20
:1011CC0030000020B00000203400002080B400AFBC
:1011DC00094BDB69002B0BDD074BDB69013B064A36
:1011EC00D361054BDB69002B02DC044B0122DA6175
:1011FC0000BFBD4680BC7047000000207C00002072
:10120C0080B582B000AF0346FB71FB79072B01D987
:10121C0000230EE0FB79094A52F82330012B07D149
:10122C00074B1B6819460720FFF76AF9012300E0FA
:10123C00002318460837BD4680BD00BF7C00002047
:10124C003000002080B500AF0720FFF7D9FF034620
:10125C00002B0CD0074B1B78012B08D10221064820
:10126C0000F095FD4FF40051034800F090FD00BFD5
:10127C0080BD00BF340000200008014080B500AFE5
:10128C000720FFF7BDFF0346002B0CD0074B1B7844
:10129C00022B08D10421064800F079FD4FF480415F
:1012AC00034800F074FD00BF80BD00BF3400002077
:1012BC000008014080B500AF0720FFF7A1FF0346EF
:1012CC00002B0CD0074B1B78032B08D108210648A8
:1012DC0000F05DFD4FF40041034800F058FD00BFE5
:1012EC0080BD00BF340000200008014080B500AF75
:1012FC000B4B1B78032B0CD0032B0DDC012B02D0DA
:10130C00022B03D008E0FFF79DFF06E0FFF7B6FFC6
:10131C0003E0FFF7CFFF00E000BF00BF80BD00BFC0
:10132C003400002080B582B000AF0346FB71FB791E
:10133C001846FFF707F9FB79054A52F82330DBB260
:10134C001846FFF78DF900BF0837BD4680BD00BFBA
:10135C009C00002080B582B000AF00237B6000238E
:10136C003B602E4B1B78032B30D0032B43DC012B23
:10137C0002D0022B15D03EE0294B1B684FF47A7239
:10138C0002FB03F2274B1B6813447B60254B1B6845
:10139C00254A82FB03129211DB179B1A63333B60C5
:1013AC002AE01F4B1B684FF47A7202FB03F21F4BAF
:1013BC001B6813447B601D4B1B681B4A82FB03128A
:1013CC009211DB179B1A63333B6015E0144B1B68BF
:1013DC004FF47A7202FB03F2154B1B6813447B60CB
:1013EC00134B1B68104A82FB03129211DB179B1ADA
:1013FC0063333B6000E000BF7B680E4A934206DD1E
:10140C003B68623B064A13604FF47A737B607868E2
:10141C00FFF750FE00BF0837BD4680BD34000020EA
:10142C00B000002024000020D34D621028000020C2
:10143C002C000020B882010080B400AF394B1B781F
:10144C00032B46D0032B64DC012B02D0022B20D0C3
:10145C005FE0354B1A68354B1B68642101FB03F3C5
:10146C001344314A1360304BDA68304B1B686421EB
:10147C0001FB03F313442C4AD3602C4B1B684FF431
:10148C007A7202FB03F22A4B1B681344284A13603E
:10149C0040E0254B5A68254B1B68642101FB03F384
:1014AC001344214A5360204B1A69204B1B6864215A
:1014BC0001FB03F313441C4A13611C4B1B684FF4D0
:1014CC007A7202FB03F21B4B1B681344194A13601C
:1014DC0020E0154B9A68154B1B68642101FB03F344
:1014EC001344114A9360104B5A69104B1B686421CA
:1014FC0001FB03F313440C4A53610C4B1B684FF470
:10150C007A7202FB03F20C4B1B6813440A4A1360F9
:10151C0000E000BF054B00221A6000BFBD4680BC36
:10152C00704700BF3400002000000020B0000020F5
:10153C0024000020280000202C00002080B500AFE3
:10154C00134B9B69002B20DD114B9B69013B104A0F
:10155C0093610F4B9B69002B17DCFFF7FBFE0D4BC8
:10156C001B685A1C0B490A60DBB21846FFF7DAFEFF
:10157C00084B1B68032B02DD064B00221A60064B3E
:10158C001B6819460620FEF7BBFF00BF80BD00BFDD
:10159C0000000020B80000203000002080B582B090
:1015AC0000AF78607B681B68B3F1804F1BD1FEF7EE
:1015BC00EBFD0F4B1B78002B05D1FFF703FAFFF760
:1015CC005DFAFFF775FB0A4B1B78012B07D0084B14
:1015DC001B78022B03D0064B1B78032B03D1FFF790
:1015EC00F5FDFFF7ABFF00BF0837BD4680BD00BF60
:1015FC003400002080B485B000AF154B9B69144AB1
:10160C0043F001039361124B9B6903F00103BB6030
:10161C00BB680F4BDB690E4A43F08053D3610C4B14
:10162C00DB6903F080537B607B680A4B5B68FB6073
:10163C00FB6823F0E063FB60FB6843F08063FB60B6
:10164C00044AFB68536000BF1437BD4680BC70472A
:10165C00001002400000014080B584B000AF7860FB
:10166C007B681B68B3F1804F13D10C4BDB690B4AC1
:10167C0043F00103D361094BDB6903F00103FB6009
:10168C00FB68002200211C2000F0A1F91C2000F0B6
:10169C00BAF900BF1037BD4680BD00BF0010024034
:1016AC0080B400AFFEE780B400AFFEE780B400AFBB
:1016BC00FEE780B400AFFEE780B400AFFEE780B475
:1016CC0000AF00BFBD4680BC704780B400AF00BF08
:1016DC00BD4680BC704780B400AF00BFBD4680BC27
:1016EC00704780B500AF00F07FF800BF80BD0000F0
:1016FC0080B500AF024800F0DBFF00BF80BD00BF2B
:10170C00BC00002080B400AF00BFBD4680BC704759
:10171C00FFF7F8FF0B480C490C4A002302E0D458A1
:10172C00C4500433C4188C42F9D3094A094C002321
:10173C0001E013600432A242FBD301F0F9FAFFF787
:10174C008DFB70470000002044000020D82D0008BD
:10175C004400002008010020FEE7000080B500AF27
:10176C00084B1B68074A43F010031360032000F07A
:10177C0023F90F2000F008F8FFF73CFF0023184670
:10178C0080BD00BF0020024080B582B000AF786001
:10179C00124B1A68124B1B7819464FF47A73B3FB31
:1017AC00F1F3B2FBF3F3184600F03BF90346002BC0
:1017BC0001D001230EE07B680F2B0AD80022796838
:1017CC004FF0FF3000F003F9064A7B6813600023EA
:1017DC0000E0012318460837BD4680BD38000020C4
:1017EC00400000203C00002080B400AF054B1B786B
:1017FC001A46054B1B681344034A136000BFBD46D1
:10180C0080BC7047400000200401002080B400AF71
:10181C00024B1B681846BD4680BC70470401002073
:10182C0080B485B000AF78607B6803F00703FB6081
:10183C000C4BDB68BB60BA684FF6FF031340BB6010
:10184C00FB681A02BB68134343F0BF6343F40033D5
:10185C00BB60044ABB68D36000BF1437BD4680BC74
:10186C00704700BF00ED00E080B400AF044BDB68B4
:10187C001B0A03F007031846BD4680BC704700BF27
:10188C0000ED00E080B483B000AF0346FB7197F924
:10189C000730002B0BDBFB7903F01F02064997F98D
:1018AC0007305B09012000FA02F241F8232000BF47
:1018BC000C37BD4680BC704700E100E080B483B0BB
:1018CC0000AF03463960FB7197F90730002B0ADB38
:1018DC003B68DAB20C4997F907301201D2B20B44CB
:1018EC0083F800230AE03B68DAB20849FB7903F07D
:1018FC000F03043B1201D2B20B441A7600BF0C3713
:10190C00BD4680BC704700BF00E100E000ED00E088
:10191C0080B489B000AFF860B9607A60FB6803F0FE
:10192C000703FB61FB69C3F10703042B28BF0423E6
:10193C00BB61FB690433062B02D9FB69033B00E056
:10194C0000237B614FF0FF32BB6902FA03F3DA43E9
:10195C00BB681A407B699A404FF0FF317B6901FAF2
:10196C0003F3D9437B680B40134318462437BD4619
:10197C0080BC704780B582B000AF78607B68013B5B
:10198C00B3F1807F01D301230FE00A4A7B68013B4E
:10199C0053600F214FF0FF30FFF790FF054B0022F3
:1019AC009A60044B07221A60002318460837BD467C
:1019BC0080BD00BF10E000E080B582B000AF786061
:1019CC007868FFF72DFF00BF0837BD4680BD80B596
:1019DC0086B000AF0346B9607A60FB7300237B616D
:1019EC00FFF742FF78617A68B9687869FFF790FF72
:1019FC00024697F90F3011461846FFF75FFF00BFFC
:101A0C001837BD4680BD80B582B000AF0346FB7170
:101A1C0097F907301846FFF735FF00BF0837BD466A
:101A2C0080BD80B582B000AF78607868FFF7A2FF08
:101A3C00034618460837BD4680BD000080B48BB005
:101A4C0000AF7860396000237B6200233B6248E181
:101A5C0001227B6A02FA03F3FB613B681B68FA699B
:101A6C001340BB61BA69FB699A4240F037813B680D
:101A7C005B68A34A93425ED0A14A934275D8A14AAF
:101A8C00934258D09F4A93426FD89F4A934252D068
:101A9C009D4A934269D89D4A93424CD09B4A9342AB
:101AAC0063D89B4A934246D0994A93425DD8122BF5
:101ABC002AD8122B59D801A252F823F0431B000844
:101ACC001D1B00082F1B0008711B0008771B00084A
:101ADC00771B0008771B0008771B0008771B000892
:101AEC00771B0008771B0008771B0008771B000882
:101AFC00771B0008771B0008771B0008771B000872
:101B0C00251B0008391B0008824A934213D02CE095
:101B1C003B68DB683B6229E03B68DB6804333B6273
:101B2C0024E03B68DB6808333B621FE03B68DB6802
:101B3C000C333B621AE03B689B68002B02D10423F8
:101B4C003B6213E03B689B68012B05D108233B6289
:101B5C007B68FA691A6109E008233B627B68FA69C1
:101B6C005A6103E000233B6200E000BFBB69FF2B1E
:101B7C0001D87B6801E07B6804337B61BB69FF2B78
:101B8C0002D87B6A9B0002E07B6A083B9B003B61AE
:101B9C007B691A680F213B6901FA03F3DB431A4096
:101BAC00396A3B6901FA03F31A437B691A603B6893
:101BBC005B6803F08053002B00F09080564B9B69C0
:101BCC00554A43F001039361534B9B6903F00103A6
:101BDC00BB60BB68514A7B6A9B08023352F82330C6
:101BEC00FB607B6A03F003039B000F2202FA03F3F2
:101BFC00DB43FA681340FB607B68494A93420DD083
:101C0C007B68484A934207D07B68474A934201D18C
:101C1C00022304E0032302E0012300E000237A6A9C
:101C2C0002F0030292009340FA681343FB603B49B5
:101C3C007B6A9B080233FA6841F823203B685B6897
:101C4C0003F48013002B06D0384B9A683749BB69D4
:101C5C0013438B6006E0354B9A68BB69DB43334911
:101C6C0013408B603B685B6803F40013002B06D0B9
:101C7C002E4BDA682D49BB691343CB6006E02B4B26
:101C8C00DA68BB69DB4329491340CB603B685B686E
:101C9C0003F40033002B06D0244B5A682349BB694C
:101CAC0013434B6006E0214B5A68BB69DB431F4969
:101CBC0013404B603B685B6803F48033002B06D009
:101CCC001A4B1A681949BB6913430B6006E0174B92
:101CDC001A68BB69DB43154913400B607B6A0133FF
:101CEC007B623B681A687B6A22FA03F3002B7FF451
:101CFC00AFAE00BF00BF2C37BD4680BC704700BFE5
:101D0C0000003210000031100000221000002110E1
:101D1C0000001210000011100010024000000140E1
:101D2C0000080140000C014000100140000401407B
:101D3C0080B485B000AF78600B467B807B689A6876
:101D4C007B881340002B02D00123FB7301E000239E
:101D5C00FB73FB7B18461437BD4680BC704780B4C0
:101D6C0083B000AF78600B467B8013467B707B782A
:101D7C00002B03D07A887B681A6103E07B881A04F5
:101D8C007B681A6100BF0C37BD4680BC704780B4BD
:101D9C0085B000AF78600B467B807B68DB68FB60AE
:101DAC007A88FB6813401A04FB68D9437B880B4084
:101DBC001A437B681A6100BF1437BD4680BC70475C
:101DCC0080B586B000AF78607B68002B01D1012311
:101DDC006CE27B681B6803F00103002B00F087802A
:101DEC00924B5B6803F00C03042B0CD08F4B5B689D
:101DFC0003F00C03082B12D18C4B5B6803F480337B
:101E0C00B3F5803F0BD1894B1B6803F40033002BD7
:101E1C006CD07B685B68002B68D1012346E27B6841
:101E2C005B68B3F5803F06D1804B1B687F4A43F457
:101E3C00803313602EE07B685B68002B0CD17B4BEE
:101E4C001B687A4A23F480331360784B1B68774AFB
:101E5C0023F4802313601DE07B685B68B3F5A02F2F
:101E6C000CD1724B1B68714A43F4802313606F4B87
:101E7C001B686E4A43F4803313600BE06B4B1B689A
:101E8C006A4A23F480331360684B1B68674A23F457
:101E9C00802313607B685B68002B13D0FFF7B6FCC4
:101EAC00386108E0FFF7B2FC02463B69D31A642B99
:101EBC0001D90323FAE15D4B1B6803F40033002BBB
:101ECC00F0D014E0FFF7A2FC386108E0FFF79EFCAD
:101EDC0002463B69D31A642B01D90323E6E1534B29
:101EEC001B6803F40033002BF0D100E000BF7B68CB
:101EFC001B6803F00203002B63D04C4B5B6803F0B0
:101F0C000C03002B0BD0494B5B6803F00C03082B24
:101F1C001CD1464B5B6803F48033002B16D1434B2A
:101F2C001B6803F00203002B05D07B681B69012B97
:101F3C0001D00123BAE13D4B1B6823F0F8027B680A
:101F4C005B69DB00394913430B603AE07B681B6922
:101F5C00002B20D0364B01221A60FFF757FC38615A
:101F6C0008E0FFF753FC02463B69D31A022B01D958
:101F7C0003239BE12D4B1B6803F00203002BF0D0D5
:101F8C002A4B1B6823F0F8027B685B69DB0027494E
:101F9C0013430B6015E0264B00221A60FFF736FC4A
:101FAC00386108E0FFF732FC02463B69D31A022B7A
:101FBC0001D903237AE11D4B1B6803F00203002BAC
:101FCC00F0D17B681B6803F00803002B3AD07B68C8
:101FDC009B69002B19D0174B01221A60FFF716FCD6
:101FEC00386108E0FFF712FC02463B69D31A022B5A
:101FFC0001D903235AE10D4B5B6A03F00203002B5A
:10200C00F0D0012000F09AFA1CE00A4B00221A6072
:10201C00FFF7FCFB38610FE0FFF7F8FB02463B696A
:10202C00D31A022B08D9032340E100BF0010024051
:10203C0000004242800442429E4B5B6A03F0020362
:10204C00002BE9D17B681B6803F00403002B00F024
:10205C00A6800023FB75974BDB6903F08053002BA4
:10206C000DD1944BDB69934A43F08053D361914B70
:10207C00DB6903F08053BB60BB680123FB758E4B9F
:10208C001B6803F48073002B18D18B4B1B688A4A96
:10209C0043F480731360FFF7B9FB386108E0FFF776
:1020AC00B5FB02463B69D31A642B01D90323FDE02F
:1020BC00814B1B6803F48073002BF0D07B68DB68CA
:1020CC00012B06D17B4B1B6A7A4A43F00103136246
:1020DC002DE07B68DB68002B0CD1764B1B6A754AB4
:1020EC0023F001031362734B1B6A724A23F004033F
:1020FC0013621CE07B68DB68052B0CD16D4B1B6AF3
:10210C006C4A43F0040313626A4B1B6A694A43F03E
:10211C00010313620BE0674B1B6A664A23F0010351
:10212C001362644B1B6A634A23F0040313627B68DB
:10213C00DB68002B15D0FFF769FB38610AE0FFF76D
:10214C0065FB02463B69D31A41F28832934201D9AE
:10215C000323ABE0574B1B6A03F00203002BEED0BA
:10216C0014E0FFF753FB38610AE0FFF74FFB024620
:10217C003B69D31A41F28832934201D9032395E08B
:10218C004C4B1B6A03F00203002BEED1FB7D012BA1
:10219C0005D1484BDB69474A23F08053D3617B68F8
:1021AC00DB69002B00F08180424B5B6803F00C0371
:1021BC00082B61D07B68DB69022B46D13F4B002298
:1021CC001A60FFF723FB386108E0FFF71FFB02469C
:1021DC003B69D31A022B01D9032367E0354B1B68EB
:1021EC0003F00073002BF0D17B681B6AB3F5803FC2
:1021FC0008D1304B5B6823F400327B689B682D4917
:10220C0013434B602B4B5B6823F474127B68196A85
:10221C007B685B6A0B43274913434B60274B0122B6
:10222C001A60FFF7F3FA386108E0FFF7EFFA02469D
:10223C003B69D31A022B01D9032337E01D4B1B68D2
:10224C0003F00073002BF0D02FE01C4B00221A601F
:10225C00FFF7DCFA386108E0FFF7D8FA02463B6971
:10226C00D31A022B01D9032320E0124B1B6803F075
:10227C000073002BF0D118E07B68DB69012B01D1D6
:10228C00012313E00B4B5B68FB60FB6803F48032AB
:10229C007B681B6A9A4206D1FB6803F470127B6858
:1022AC005B6A9A4201D0012300E0002318461837DC
:1022BC00BD4680BD001002400070004060004242EC
:1022CC0080B584B000AF786039607B68002B01D199
:1022DC000123D0E06A4B1B6803F007033A689A426B
:1022EC0010D9674B1B6823F0070265493B68134301
:1022FC000B60634B1B6803F007033A689A4201D0EA
:10230C000123B8E07B681B6803F00203002B20D08C
:10231C007B681B6803F00403002B05D0594B5B68EA
:10232C00584A43F4E06353607B681B6803F008036E
:10233C00002B05D0534B5B68524A43F460535360F7
:10234C00504B5B6823F0F0027B689B684D4913434C
:10235C004B607B681B6803F00103002B40D07B684B
:10236C005B68012B07D1474B1B6803F40033002B30
:10237C0015D101237FE07B685B68022B07D1414BB1
:10238C001B6803F00073002B09D1012373E03D4B54
:10239C001B6803F00203002B01D101236BE0394BC6
:1023AC005B6823F003027B685B68364913434B6020
:1023BC00FFF72CFAF8600AE0FFF728FA0246FB68F0
:1023CC00D31A41F28832934201D9032353E02D4BA7
:1023DC005B6803F00C027B685B689B009A42EBD154
:1023EC00274B1B6803F007033A689A4210D2244B20
:1023FC001B6823F0070222493B6813430B60204BF8
:10240C001B6803F007033A689A4201D0012332E0BB
:10241C007B681B6803F00403002B08D0194B5B6826
:10242C0023F4E0627B68DB68164913434B607B68DE
:10243C001B6803F00803002B09D0124B5B6823F4D4
:10244C0060527B681B69DB000E4913434B6000F044
:10245C0021F802460B4B5B681B0903F00F030A497A
:10246C00CB5C22FA03F3094A1360094B1B6818462C
:10247C00FFF78AF9002318461037BD4680BD00BF10
:10248C000020024000100240AC2D00083800002053
:10249C003C00002080B487B000AF0023FB60002319
:1024AC00BB6000237B6100237B6000233B611E4BE0
:1024BC005B68FB60FB6803F00C03042B02D0082B59
:1024CC0003D027E0194B3B6127E0FB689B0C03F022
:1024DC000F03174AD35C7B60FB6803F48033002B3B
:1024EC0010D0114B5B685B0C03F00103114AD35CF9
:1024FC00BB607B680D4A02FB03F2BB68B2FBF3F3D3
:10250C007B6104E07B680C4A02FB03F37B617B6913
:10251C003B6102E0054B3B6100BF3B6918461C3731
:10252C00BD4680BC704700BF0010024000127A000C
:10253C00BC2D0008CC2D000800093D0080B485B0EE
:10254C0000AF78600A4B1B680A4AA2FB03235B0AA4
:10255C007A6802FB03F3FB6000BFFB685A1EFA604B
:10256C00002BF9D100BF00BF1437BD4680BC7047AB
:10257C0038000020D34D621080B582B000AF786077
:10258C007B68002B01D1012341E07B6893F83D303F
:10259C00DBB2002B06D17B68002283F83C207868E4
:1025AC00FFF75AF87B68022283F83D207B681A6893
:1025BC007B6804331946104600F056FA7B680122FA
:1025CC0083F846207B68012283F83E207B68012239
:1025DC0083F83F207B68012283F840207B6801222E
:1025EC0083F841207B68012283F842207B6801221A
:1025FC0083F843207B68012283F844207B68012206
:10260C0083F845207B68012283F83D20002318467F
:10261C000837BD4680BD000080B485B000AF78603F
:10262C007B6893F83D30DBB2012B01D0012335E000
:10263C007B68022283F83D207B681B68DA687B6824
:10264C001B6842F00102DA607B681B68164A9342F1
:10265C0009D07B681B68B3F1804F04D07B681B6882
:10266C00124A934211D17B681B689B6803F00703E5
:10267C00FB60FB68062B10D07B681B681A687B68B4
:10268C001B6842F001021A6007E07B681B681A683D
:10269C007B681B6842F001021A600023184614374D
:1026AC00BD4680BC704700BF002C014000040040B8
:1026BC0080B584B000AF78607B681B68DB68FB601A
:1026CC007B681B681B69BB60BB6803F00203002BB3
:1026DC0020D0FB6803F00203002B1BD07B681B6827
:1026EC006FF002021A617B6801221A777B681B6803
:1026FC009B6903F00303002B03D0786800F098F972
:10270C0005E0786800F08BF9786800F09AF97B683E
:10271C0000221A77BB6803F00403002B20D0FB685F
:10272C0003F00403002B1BD07B681B686FF00402C2
:10273C001A617B6802221A777B681B689B6903F419
:10274C004073002B03D0786800F072F905E07868CC
:10275C0000F065F9786800F074F97B6800221A774C
:10276C00BB6803F00803002B20D0FB6803F00803C0
:10277C00002B1BD07B681B686FF008021A617B680A
:10278C0004221A777B681B68DB6903F00303002BB8
:10279C0003D0786800F04CF905E0786800F03FF958
:1027AC00786800F04EF97B6800221A77BB6803F05A
:1027BC001003002B20D0FB6803F01003002B1BD060
:1027CC007B681B686FF010021A617B6808221A770D
:1027DC007B681B68DB6903F44073002B03D07868BB
:1027EC0000F026F905E0786800F019F9786800F037
:1027FC0028F97B6800221A77BB6803F00103002BD1
:10280C000CD0FB6803F00103002B07D07B681B681E
:10281C006FF001021A617868FEF7C0FEBB6803F026
:10282C008003002B0CD0FB6803F08003002B07D037
:10283C007B681B686FF080021A61786800F06FFA91
:10284C00BB6803F04003002B0CD0FB6803F0400383
:10285C00002B07D07B681B686FF040021A61786808
:10286C0000F0F8F8BB6803F02003002B0CD0FB68D9
:10287C0003F02003002B07D07B681B686FF020024D
:10288C001A61786800F042FA00BF1037BD4680BD6F
:10289C0080B584B000AF786039600023FB737B682F
:1028AC0093F83C30012B01D10223B4E07B68012268
:1028BC0083F83C207B68022283F83D207B681B68F0
:1028CC009B68BB60BB6823F07703BB60BB6823F4D9
:1028DC007F43BB607B681B68BA689A603B681B6867
:1028EC00B3F5005F3ED0B3F5005F00F28780B3F51F
:1028FC00805F00F08680B3F5805F7FD8702B1AD094
:10290C00702B7BD8602B50D0602B77D8502B3CD0C1
:10291C00502B73D8402B58D0402B6FD8302B64D011
:10292C00302B6BD8202B60D0202B67D8002B5CD0A1
:10293C00102B5AD062E07B6818683B6899683B683A
:10294C005A683B68DB6800F06AF97B681B689B6817
:10295C00BB60BB6843F07703BB607B681B68BA68DD
:10296C009A604FE07B6818683B6899683B685A68C6
:10297C003B68DB6800F053F97B681B689A687B68DE
:10298C001B6842F480429A603CE07B6818683B68A4
:10299C0059683B68DB681A4600F0CAF87B681B680C
:1029AC005021184600F021F92CE07B6818683B6830
:1029BC0059683B68DB681A4600F0E8F87B681B68CE
:1029CC006021184600F011F91CE07B6818683B6820
:1029DC0059683B68DB681A4600F0AAF87B681B68EC
:1029EC004021184600F001F90CE07B681A683B683E
:1029FC001B681946104600F0F8F803E00123FB733E
:102A0C0000E000BF7B68012283F83D207B68002238
:102A1C0083F83C20FB7B18461037BD4680BD80B444
:102A2C0083B000AF786000BF0C37BD4680BC7047E8
:102A3C0080B483B000AF786000BF0C37BD4680BC5B
:102A4C00704780B483B000AF786000BF0C37BD46D0
:102A5C0080BC704780B483B000AF786000BF0C3787
:102A6C00BD4680BC7047000080B485B000AF786074
:102A7C0039607B681B68FB607B682B4A934207D0EC
:102A8C007B68B3F1804F03D07B68284A934208D10E
:102A9C00FB6823F07003FB603B685B68FA681343C8
:102AAC00FB607B68204A934207D07B68B3F1804F70
:102ABC0003D07B681D4A934208D1FB6823F4407312
:102ACC00FB603B68DB68FA681343FB60FB6823F030
:102ADC0080023B685B691343FB607B68FA681A6091
:102AEC003B689A687B68DA623B681A687B689A6212
:102AFC007B680D4A934203D13B681A697B681A6361
:102B0C007B6801225A617B681B6903F00103002B6F
:102B1C0005D07B681B6923F001027B681A6100BF3A
:102B2C001437BD4680BC7047002C014000040040A7
:102B3C0080B487B000AFF860B9607A60FB681B6A3C
:102B4C007B61FB681B6A23F00102FB681A62FB685D
:102B5C009B693B613B6923F0F0033B617B681B0184
:102B6C003A6913433B617B6923F00A037B617A6901
:102B7C00BB6813437B61FB683A699A61FB687A69AD
:102B8C001A6200BF1C37BD4680BC704780B487B04A
:102B9C0000AFF860B9607A60FB681B6A7B61FB6808
:102BAC001B6A23F01002FB681A62FB689B693B618D
:102BBC003B6923F470433B617B681B033A69134305
:102BCC003B617B6923F0A0037B61BB681B017A69C5
:102BDC0013437B61FB683A699A61FB687A691A62F4
:102BEC0000BF1C37BD4680BC704780B485B000AFB9
:102BFC00786039607B689B68FB60FB6823F070032E
:102C0C00FB603A68FB68134343F00703FB607B6887
:102C1C00FA689A6000BF1437BD4680BC704780B418
:102C2C0087B000AFF860B9607A603B60FB689B6866
:102C3C007B617B6923F47F437B613B681A027B6871
:102C4C001A43BB6813437A6913437B61FB687A6947
:102C5C009A6000BF1C37BD4680BC704780B485B0FD
:102C6C0000AF786039607B6893F83C30012B01D160
:102C7C00022341E07B68012283F83C207B6802221E
:102C8C0083F83D207B681B685B68FB607B681B6876
:102C9C009B68BB60FB6823F07003FB603B681B68A0
:102CAC00FA681343FB607B681B68FA685A607B68A0
:102CBC001B68144A934209D07B681B68B3F1804FA0
:102CCC0004D07B681B68104A93420CD1BB6823F07C
:102CDC008003BB603B685B68BA681343BB607B686E
:102CEC001B68BA689A607B68012283F83D207B6878
:102CFC00002283F83C20002318461437BD4680BCC4
:102D0C00704700BF002C01400004004080B483B029
:102D1C0000AF786000BF0C37BD4680BC704780B4F4
:102D2C0083B000AF786000BF0C37BD4680BC7047E5
:102D3C0070B500260C4D0D4C641BA410A64209D195
:102D4C0000F022F800260A4D0A4C641BA410A6427F
:102D5C0005D170BD55F8043B98470136EEE755F8A0
:102D6C00043B98470136F2E7D02D0008D02D00081F
:102D7C00D02D0008D42D000803460244934200D104
:102D8C00704703F8011BF9E7F8B500BFF8BC08BCA5
:102D9C009E467047F8B500BFF8BC08BC9E4670470D
:102DAC0000000000000000000102030406070809EF
:102DBC0002030405060708090A0B0C0D0E0F101070
:042DCC000102000000
:042DD00031010008C5
:042DD4000D010008E5
:102DD800F4010000C80000002C010000F40100000C
:102DE800C80000002C0100001900000019000000B4
:102DF8000200000088130000D0070000B80B000094
:102E0800FA0000000400000000127A001000000020
:042E180001000000B5
:040000050800171DBB
:00000001FF
